:100000000C942A000C9434000C9434000C943400AA
:100010000C9434000C9434000C9434000C94340090
:100020000C9434000C9434000C9434000C94340080
:100030000C9434000C9434000C9434000C94340070
:100040000C9434000C9434000C9434000C94340060
:100050000C94340011241FBECFE5D4E0DEBFCDBF29
:100060000E9466010C9495010C94000084B3807F7B
:1000700084BB959A969881E08A95F1F721E032E069
:10008000979A822F8A95F1F783B38295807F922F7A
:100090009A95F1F79798932F9A95F1F7979A922F4F
:1000A0009A95F1F793B3922F9A95F1F79798932F2A
:1000B0009A95F1F787FDE4CF959884B38F6084BB60
:1000C0000895282F662311F4969801C0969A81E02E
:1000D0008A95F1F7979A85B3922F92959F70807FBA
:1000E000982B95BB92E0892F8A95F1F79798892FE5
:1000F0008A95F1F7979A85B32F70807F822B85BB05
:10010000892F8A95F1F797989A95F1F70E94360012
:1001100008951F93182F80E69AEE0197F1F784B3A4
:100120008F6084BB8F9A8E9A8D9A85B3807F85BBB2
:1001300097989598969881E08A95F1F7979AA99A59
:1001400082E0982F9A95F1F797988A95F1F70E9497
:100150003600812F8C6060E00E94610088E260E0E0
:100160000E9461001F910895CF93DF93EC0104C0BA
:1001700061E00E946100219688818823C9F7DF91A0
:10018000CF910895EF92FF920F931F93DF93CF9338
:1001900000D000D00F92CDB7DEB79C018B01FE01DD
:1001A000319685E0DF011D928A95E9F7FE013596CB
:1001B0000DC0C9016AE070E00E946E018083C90130
:1001C0006AE070E00E946E019B01319721153105B4
:1001D00081F7BFEF0F3F1B0779F420E030E0AE015D
:1001E0004F5F5F4F02C02F5F3F4FFA01E20FF31FD7
:1001F00080818823C1F304C025E030E0201B310B4F
:100200007E010894E11CF11CE20EF31E890109C075
:10021000F70181917F01805D61E00E9461000F5FC5
:100220001F4F05301105A4F30F900F900F900F9002
:100230000F90CF91DF911F910F91FF90EF90089554
:10024000883230F461118064806860E00E9461004F
:100250000895CF93DF938BB38F608BBB60E070E02A
:10026000C0E4D0E0A8E0B0E0E62F8AB380788ABB93
:100270002AB3CE01062E02C0959587950A94E2F71F
:10028000282B2ABB40E050E089B39D01042E02C018
:10029000359527950A94E2F790E028233923232BFC
:1002A00039F4CA01880F991F840F951F8E0F0BC058
:1002B0004F5F5F4F4430510539F76F5F7F4F6330B9
:1002C000710591F68FEFDF91CF910895889AB898D4
:1002D000C09B02C09098FCCF909AFACF97FB092E52
:1002E00007260AD077FD04D00CD006D000201AF4DF
:1002F000709561957F4F0895F6F7909581959F4F82
:100300000895AA1BBB1B51E107C0AA1FBB1FA6175C
:10031000B70710F0A61BB70B881F991F5A95A9F7AE
:0E03200080959095BC01CD010895F894FFCF13
:00000001FF
