:1000000012C02CC02BC02AC029C028C027C026C0BF
:1000100025C024C023C022C021C020C01FC01EC0D4
:100020001DC01CC01BC011241FBECFE5D4E0DEBF25
:10003000CDBF10E0A0E6B0E0E0E5F3E002C005903F
:100040000D92AC3AB107D9F710E0ACEAB0E001C0CC
:100050001D92AC3AB107E1F702D079C1D1CF0F932D
:100060001F93CF93DF9383E023D160E081E07CD0C6
:1000700080E690E0A0D061E080E00DD18AE690E0DB
:100080009AD000E010E0C0E0D0E061E089E003D168
:1000900063E070E0C8019ED061E08CE0FCD083E7B3
:1000A00090E089D0CE010197F1F7CE010197F1F7E9
:1000B000CE010197F1F7CE010197F1F70F5F1F4FC6
:1000C0000336110511F760E081E04ED085E790E03E
:1000D00072D061E080E0DFD081E890E06CD020E079
:1000E000E0E0F0E0CF010197F1F72F5F2436D1F780
:1000F00060E081E039D082E990E05DD061E080E0AD
:10010000CAD08EE990E057D0DF91CF911F910F9127
:10011000089584B3807F84BB959A969882E08A95EF
:10012000F1F722E034E0979A822F8A95F1F783B3B2
:100130008295807F922F9A95F1F79798932F9A95B1
:10014000F1F7979A922F9A95F1F793B3922F9A9588
:10015000F1F79798932F9A95F1F787FDE4CF95984B
:1001600084B38F6084BB0895282F662311F496987A
:1001700001C0969A82E08A95F1F7979A85B3807FBD
:10018000922F92959F70892B85BB94E0892F8A9539
:10019000F1F79798892F8A95F1F7979A85B3807F21
:1001A0002F70822B85BB892F8A95F1F797989A95A6
:1001B000F1F7AFDF0895CF93DF93EC0188818823B7
:1001C00031F061E0D1DF219688818823D1F7DF917A
:1001D000CF910895EF92FF920F931F93CF93DF93E8
:1001E000CDB7DEB725970FB6F894DEBF0FBECDBFF3
:1001F0009C018B017E010894E11CF11C85E0F70154
:1002000011928A95E9F72115310579F0FE013596AD
:10021000C9016AE070E074D080833197C9016AE057
:1002200070E06ED09B01672B99F7FFEF0F3F1F0720
:10023000B1F085E090E0801B910B85309105F4F4DE
:100240008C01E00EF11EF70181917F0161E0805D7C
:100250008BDF0F5F1F4F05301105ACF30FC0898195
:10026000882349F4F701818131968823E1F3CF0196
:100270008E199F09E2CF00E010E0E3CF25960FB67C
:10028000F894DEBF0FBECDBFDF91CF911F910F91CC
:10029000FF90EF900895883228F4662321F460E0FF
:1002A000806862DF0895806460E080685DDFFACF77
:1002B0001F93182F80E090E00197F1F784B38F60CF
:1002C00084BB8F9A8E9A8D9A85B3807F85BB9798D1
:1002D0009598969881E08A95F1F7979AA99A84E083
:1002E000982F9A95F1F797988A95F1F712DF60E0C9
:1002F000812F8C6039DF60E088E236DF1F9108953E
:1003000097FB092E07260AD077FD04D00CD006D023
:1003100000201AF4709561957F4F0895F6F7909537
:1003200081959F4F0895AA1BBB1B51E107C0AA1FCF
:10033000BB1FA617B70710F0A61BB70B881F991F86
:100340005A95A9F780959095BC01CD010895FFCFEE
:10035000436F6E677261747320004C6F6164696EE5
:10036000672000250048656C6C6F20776F726C64A5
:1003700000427920596F75724E616D652048657233
:1003800065002020202065587472656D650020206E
:0C039000456C656374726F6E69637300E6
:00000001FF
